:1000000019C020C01FC01EC01DC01CC01BC01AC00C
:1000100019C018C017C016C015C014C013C012C034
:1000200011C010C00FC00EC00DC00CC00BC00AC064
:1000300009C008C011241FBECFEFD4E0DEBFCDBF82
:10004000A4D0FBC0DDCFCF93DF93CDB7DEB78AE27C
:1000500090E02AE230E0F90120812062FC01208357
:100060008AE290E0FC0180818AE290E0FC0110824B
:10007000DF91CF910895CF93DF93CDB7DEB78BE2B9
:1000800090E02BE230E0F90120812064FC01208324
:100090008BE290E0FC0180818BE290E0FC01108219
:1000A000DF91CF910895CF93DF93CDB7DEB78AE28A
:1000B00090E02AE230E0F90120812062FC012083F7
:1000C0008AE290E02AE230E0F90120812064FC011C
:1000D00020838AE290E02AE230E0F9012081206862
:1000E000FC0120838AE290E0FC0180818AE290E0BA
:1000F000FC0110828BE290E0FC0180818BE290E0B9
:10010000FC0110828BE290E0FC0180818BE290E0A8
:10011000FC01108298DFAFDFDF91CF910895CF937C
:10012000DF9300D000D0CDB7DEB769837A838B83AD
:100130009C8389819A81AB81BC81880F991FAA1FFA
:10014000BB1F880F991FAA1FBB1F880F991FAA1FCB
:10015000BB1F880F991FAA1FBB1F880F991FAA1FBB
:10016000BB1F20E439E543E757E0BC01CD0128D0AF
:10017000DA01C90122E08227BC01CD010F900F9066
:100180000F900F90DF91CF910895CF93DF9300D020
:1001900000D0CDB7DEB787DF61EC7FEC8AE690E078
:1001A000BEDFDC01CB0189839A83AB83BC8380E013
:1001B00090E00F900F900F900F90DF91CF910895E6
:1001C000052E97FB16F4009406D057FD0CD013D0E3
:1001D00007FC09D07EF490958095709561957F4FCE
:1001E0008F4F9F4F089550954095309521953F4FE3
:1001F0004F4F5F4F0895A1E21A2EAA1BBB1BFD01B2
:100200000DC0AA1FBB1FEE1FFF1FA217B307E407F5
:10021000F50720F0A21BB30BE40BF50B661F771F4D
:10022000881F991F1A9469F760957095809590952D
:0E0230009B01AC01BD01CF010895F894FFCFF2
:00000001FF
