:1000000019C020C01FC01EC01DC01CC01BC01AC00C
:1000100019C018C017C016C015C014C013C012C034
:1000200011C010C00FC00EC00DC00CC00BC00AC064
:1000300009C008C011241FBECFEFD4E0DEBFCDBF82
:100040005BD1D7C1DDCFCF93DF93CDB7DEB78AE2E7
:1000500090E02AE230E0F90120812062FC01208357
:100060008AE290E0FC0180818AE290E0FC0110824B
:10007000DF91CF910895CF93DF93CDB7DEB78BE2B9
:1000800090E02BE230E0F90120812064FC01208324
:100090008BE290E0FC0180818BE290E0FC01108219
:1000A000DF91CF910895CF93DF93CDB7DEB78AE28A
:1000B00090E02AE230E0F90120812062FC012083F7
:1000C0008AE290E02AE230E0F90120812064FC011C
:1000D00020838AE290E02AE230E0F9012081206862
:1000E000FC0120838AE290E0FC0180818AE290E0BA
:1000F000FC0110828BE290E0FC0180818BE290E0B9
:10010000FC0110828BE290E0FC0180818BE290E0A8
:10011000FC01108298DFAFDFDF91CF9108952F921D
:100120003F924F925F926F927F928F929F92AF9287
:10013000BF92CF92DF92EF92FF920F931F93CF93D4
:10014000DF9300D000D0CDB7DEB769837A838B838D
:100150009C83A980BA80CB80DC8089819A81AB8125
:10016000BC81BB0F880B982FDC01E82EF82E082FDE
:10017000182F2A2D3B2D4C2D5D2D6E2D7F2D802F80
:10018000912F00E227D1222E332E442E552E662E9B
:10019000772E882E992E20E439E543E757E060E07A
:1001A00070E080E090E0A22EB32EC42ED52EE62E75
:1001B000F72E082F192F222D332D442D552D662D66
:1001C000772D882D992DBCD0A22EB32EC42ED52EDE
:1001D000E62EF72E082F192F2A2D3B2D4C2D5D2DA5
:1001E0006E2D7F2D802F912FDA01C901BC01CD0129
:1001F0000F900F900F900F90DF91CF911F910F9163
:10020000FF90EF90DF90CF90BF90AF909F908F9036
:100210007F906F905F904F903F902F900895CF9375
:10022000DF9300D01F92CDB7DEB78B8388E090E0DC
:100230009A83898322C08B81882F90E081709927CF
:10024000009751F08BE290E02BE230E0F901208141
:100250002068FC01208308C08BE290E0FC018081D3
:100260008BE290E0FC0110828B8186958B83EBDE24
:1002700089819A8101979A83898389819A810097DC
:10028000D1F60F900F900F90DF91CF910895CF93FB
:10029000DF9300D000D000D0CDB7DEB76B837C8376
:1002A0008D839E8384E090E09A83898315C08B813F
:1002B000B6DF8B819C81AD81BE81892F9A2FAB2FB8
:1002C000BB27A7FDBA958B839C83AD83BE838981B1
:1002D0009A8101979A83898389819A81009739F756
:1002E00080E09DDFC8DE26960FB6F894DEBF0FBE15
:1002F000CDBFDF91CF910895CF93DF9300D000D091
:10030000CDB7DEB7D0DE61EC7FEC8AE690E007DFA8
:10031000DC01CB0189839A83AB83BC8389819A8179
:10032000AB81BC81BC01CD01B2DF80E090E00F90D9
:100330000F900F900F90DF91CF910895689401C0B6
:10034000E8948F929F92CF93DF9305D0DF91CF9166
:100350009F908F90089588249924F401E401B0E4DB
:100360001B2ED4019D158E049F04E007F10738F47D
:10037000FC014B01CA01B901AD019E011694220F87
:10038000331F441F551F661F771F881F991F881C26
:10039000991CEE1FFF1FCC1FDD1FAA1FBB1F8A1455
:1003A0009B04EC05FD05CE05DF05A007B10748F06D
:1003B0008A189B08EC09FD09CE09DF09A00BB10BD7
:1003C00021601A94E1F62EF49401AF01BE01CD0133
:1003D000000C08950F930F7351F0220F331F441F29
:1003E000551F661F771F881F991F0A95B1F70F9138
:0603F0000895F894FFCF10
:00000001FF
